{
  "_format": "hh-sol-artifact-1",
  "contractName": "NFTMarketplace",
  "sourceName": "contracts/MyNFT.sol",
  "abi": [
    {
      "inputs": [],
      "stateMutability": "nonpayable",
      "type": "constructor"
    },
    {
      "anonymous": false,
      "inputs": [
        {
          "indexed": true,
          "internalType": "address",
          "name": "owner",
          "type": "address"
        },
        {
          "indexed": true,
          "internalType": "address",
          "name": "approved",
          "type": "address"
        },
        {
          "indexed": true,
          "internalType": "uint256",
          "name": "tokenId",
          "type": "uint256"
        }
      ],
      "name": "Approval",
      "type": "event"
    },
    {
      "anonymous": false,
      "inputs": [
        {
          "indexed": true,
          "internalType": "address",
          "name": "owner",
          "type": "address"
        },
        {
          "indexed": true,
          "internalType": "address",
          "name": "operator",
          "type": "address"
        },
        {
          "indexed": false,
          "internalType": "bool",
          "name": "approved",
          "type": "bool"
        }
      ],
      "name": "ApprovalForAll",
      "type": "event"
    },
    {
      "anonymous": false,
      "inputs": [
        {
          "indexed": true,
          "internalType": "uint256",
          "name": "tokenId",
          "type": "uint256"
        },
        {
          "indexed": false,
          "internalType": "address",
          "name": "owner",
          "type": "address"
        },
        {
          "indexed": false,
          "internalType": "address",
          "name": "seller",
          "type": "address"
        },
        {
          "indexed": false,
          "internalType": "uint256",
          "name": "price",
          "type": "uint256"
        },
        {
          "indexed": false,
          "internalType": "bool",
          "name": "currentlyListed",
          "type": "bool"
        }
      ],
      "name": "TokenListedSuccess",
      "type": "event"
    },
    {
      "anonymous": false,
      "inputs": [
        {
          "indexed": true,
          "internalType": "address",
          "name": "from",
          "type": "address"
        },
        {
          "indexed": true,
          "internalType": "address",
          "name": "to",
          "type": "address"
        },
        {
          "indexed": true,
          "internalType": "uint256",
          "name": "tokenId",
          "type": "uint256"
        }
      ],
      "name": "Transfer",
      "type": "event"
    },
    {
      "inputs": [
        {
          "internalType": "address",
          "name": "to",
          "type": "address"
        },
        {
          "internalType": "uint256",
          "name": "tokenId",
          "type": "uint256"
        }
      ],
      "name": "approve",
      "outputs": [],
      "stateMutability": "nonpayable",
      "type": "function"
    },
    {
      "inputs": [
        {
          "internalType": "address",
          "name": "owner",
          "type": "address"
        }
      ],
      "name": "balanceOf",
      "outputs": [
        {
          "internalType": "uint256",
          "name": "",
          "type": "uint256"
        }
      ],
      "stateMutability": "view",
      "type": "function"
    },
    {
      "inputs": [
        {
          "internalType": "string",
          "name": "tokenURI",
          "type": "string"
        },
        {
          "internalType": "uint256",
          "name": "price",
          "type": "uint256"
        }
      ],
      "name": "createToken",
      "outputs": [
        {
          "internalType": "uint256",
          "name": "",
          "type": "uint256"
        }
      ],
      "stateMutability": "payable",
      "type": "function"
    },
    {
      "inputs": [
        {
          "internalType": "uint256",
          "name": "tokenId",
          "type": "uint256"
        }
      ],
      "name": "executeSale",
      "outputs": [],
      "stateMutability": "payable",
      "type": "function"
    },
    {
      "inputs": [],
      "name": "getAllNFTs",
      "outputs": [
        {
          "components": [
            {
              "internalType": "uint256",
              "name": "tokenId",
              "type": "uint256"
            },
            {
              "internalType": "address payable",
              "name": "owner",
              "type": "address"
            },
            {
              "internalType": "address payable",
              "name": "seller",
              "type": "address"
            },
            {
              "internalType": "uint256",
              "name": "price",
              "type": "uint256"
            },
            {
              "internalType": "bool",
              "name": "currentlyListed",
              "type": "bool"
            }
          ],
          "internalType": "struct NFTMarketplace.ListedToken[]",
          "name": "",
          "type": "tuple[]"
        }
      ],
      "stateMutability": "view",
      "type": "function"
    },
    {
      "inputs": [
        {
          "internalType": "uint256",
          "name": "tokenId",
          "type": "uint256"
        }
      ],
      "name": "getApproved",
      "outputs": [
        {
          "internalType": "address",
          "name": "",
          "type": "address"
        }
      ],
      "stateMutability": "view",
      "type": "function"
    },
    {
      "inputs": [],
      "name": "getCurrentToken",
      "outputs": [
        {
          "internalType": "uint256",
          "name": "",
          "type": "uint256"
        }
      ],
      "stateMutability": "view",
      "type": "function"
    },
    {
      "inputs": [],
      "name": "getLatestIdToListedToken",
      "outputs": [
        {
          "components": [
            {
              "internalType": "uint256",
              "name": "tokenId",
              "type": "uint256"
            },
            {
              "internalType": "address payable",
              "name": "owner",
              "type": "address"
            },
            {
              "internalType": "address payable",
              "name": "seller",
              "type": "address"
            },
            {
              "internalType": "uint256",
              "name": "price",
              "type": "uint256"
            },
            {
              "internalType": "bool",
              "name": "currentlyListed",
              "type": "bool"
            }
          ],
          "internalType": "struct NFTMarketplace.ListedToken",
          "name": "",
          "type": "tuple"
        }
      ],
      "stateMutability": "view",
      "type": "function"
    },
    {
      "inputs": [],
      "name": "getListPrice",
      "outputs": [
        {
          "internalType": "uint256",
          "name": "",
          "type": "uint256"
        }
      ],
      "stateMutability": "view",
      "type": "function"
    },
    {
      "inputs": [
        {
          "internalType": "uint256",
          "name": "tokenId",
          "type": "uint256"
        }
      ],
      "name": "getListedTokenForId",
      "outputs": [
        {
          "components": [
            {
              "internalType": "uint256",
              "name": "tokenId",
              "type": "uint256"
            },
            {
              "internalType": "address payable",
              "name": "owner",
              "type": "address"
            },
            {
              "internalType": "address payable",
              "name": "seller",
              "type": "address"
            },
            {
              "internalType": "uint256",
              "name": "price",
              "type": "uint256"
            },
            {
              "internalType": "bool",
              "name": "currentlyListed",
              "type": "bool"
            }
          ],
          "internalType": "struct NFTMarketplace.ListedToken",
          "name": "",
          "type": "tuple"
        }
      ],
      "stateMutability": "view",
      "type": "function"
    },
    {
      "inputs": [],
      "name": "getMyNFTs",
      "outputs": [
        {
          "components": [
            {
              "internalType": "uint256",
              "name": "tokenId",
              "type": "uint256"
            },
            {
              "internalType": "address payable",
              "name": "owner",
              "type": "address"
            },
            {
              "internalType": "address payable",
              "name": "seller",
              "type": "address"
            },
            {
              "internalType": "uint256",
              "name": "price",
              "type": "uint256"
            },
            {
              "internalType": "bool",
              "name": "currentlyListed",
              "type": "bool"
            }
          ],
          "internalType": "struct NFTMarketplace.ListedToken[]",
          "name": "",
          "type": "tuple[]"
        }
      ],
      "stateMutability": "view",
      "type": "function"
    },
    {
      "inputs": [
        {
          "internalType": "address",
          "name": "owner",
          "type": "address"
        },
        {
          "internalType": "address",
          "name": "operator",
          "type": "address"
        }
      ],
      "name": "isApprovedForAll",
      "outputs": [
        {
          "internalType": "bool",
          "name": "",
          "type": "bool"
        }
      ],
      "stateMutability": "view",
      "type": "function"
    },
    {
      "inputs": [],
      "name": "name",
      "outputs": [
        {
          "internalType": "string",
          "name": "",
          "type": "string"
        }
      ],
      "stateMutability": "view",
      "type": "function"
    },
    {
      "inputs": [
        {
          "internalType": "uint256",
          "name": "tokenId",
          "type": "uint256"
        }
      ],
      "name": "ownerOf",
      "outputs": [
        {
          "internalType": "address",
          "name": "",
          "type": "address"
        }
      ],
      "stateMutability": "view",
      "type": "function"
    },
    {
      "inputs": [
        {
          "internalType": "address",
          "name": "from",
          "type": "address"
        },
        {
          "internalType": "address",
          "name": "to",
          "type": "address"
        },
        {
          "internalType": "uint256",
          "name": "tokenId",
          "type": "uint256"
        }
      ],
      "name": "safeTransferFrom",
      "outputs": [],
      "stateMutability": "nonpayable",
      "type": "function"
    },
    {
      "inputs": [
        {
          "internalType": "address",
          "name": "from",
          "type": "address"
        },
        {
          "internalType": "address",
          "name": "to",
          "type": "address"
        },
        {
          "internalType": "uint256",
          "name": "tokenId",
          "type": "uint256"
        },
        {
          "internalType": "bytes",
          "name": "data",
          "type": "bytes"
        }
      ],
      "name": "safeTransferFrom",
      "outputs": [],
      "stateMutability": "nonpayable",
      "type": "function"
    },
    {
      "inputs": [
        {
          "internalType": "address",
          "name": "operator",
          "type": "address"
        },
        {
          "internalType": "bool",
          "name": "approved",
          "type": "bool"
        }
      ],
      "name": "setApprovalForAll",
      "outputs": [],
      "stateMutability": "nonpayable",
      "type": "function"
    },
    {
      "inputs": [
        {
          "internalType": "bytes4",
          "name": "interfaceId",
          "type": "bytes4"
        }
      ],
      "name": "supportsInterface",
      "outputs": [
        {
          "internalType": "bool",
          "name": "",
          "type": "bool"
        }
      ],
      "stateMutability": "view",
      "type": "function"
    },
    {
      "inputs": [],
      "name": "symbol",
      "outputs": [
        {
          "internalType": "string",
          "name": "",
          "type": "string"
        }
      ],
      "stateMutability": "view",
      "type": "function"
    },
    {
      "inputs": [
        {
          "internalType": "uint256",
          "name": "tokenId",
          "type": "uint256"
        }
      ],
      "name": "tokenURI",
      "outputs": [
        {
          "internalType": "string",
          "name": "",
          "type": "string"
        }
      ],
      "stateMutability": "view",
      "type": "function"
    },
    {
      "inputs": [
        {
          "internalType": "address",
          "name": "from",
          "type": "address"
        },
        {
          "internalType": "address",
          "name": "to",
          "type": "address"
        },
        {
          "internalType": "uint256",
          "name": "tokenId",
          "type": "uint256"
        }
      ],
      "name": "transferFrom",
      "outputs": [],
      "stateMutability": "nonpayable",
      "type": "function"
    },
    {
      "inputs": [
        {
          "internalType": "uint256",
          "name": "_listPrice",
          "type": "uint256"
        }
      ],
      "name": "updateListPrice",
      "outputs": [],
      "stateMutability": "payable",
      "type": "function"
    }
  ],
  "bytecode": "0x6080604052662386f26fc10000600a553480156200001c57600080fd5b506040518060400160405280601281526020017f4e4654436172644d61726b6574706c61636500000000000000000000000000008152506040518060400160405280600481526020017f43415244000000000000000000000000000000000000000000000000000000008152508160009080519060200190620000a192919062000104565b508060019080519060200190620000ba92919062000104565b50505033600960006101000a81548173ffffffffffffffffffffffffffffffffffffffff021916908373ffffffffffffffffffffffffffffffffffffffff16021790555062000219565b8280546200011290620001e3565b90600052602060002090601f01602090048101928262000136576000855562000182565b82601f106200015157805160ff191683800117855562000182565b8280016001018555821562000182579182015b828111156200018157825182559160200191906001019062000164565b5b50905062000191919062000195565b5090565b5b80821115620001b057600081600090555060010162000196565b5090565b7f4e487b7100000000000000000000000000000000000000000000000000000000600052602260045260246000fd5b60006002820490506001821680620001fc57607f821691505b60208210811415620002135762000212620001b4565b5b50919050565b613cca80620002296000396000f3fe6080604052600436106101355760003560e01c80638e264590116100ab578063c322579c1161006f578063c322579c14610430578063c87b56dd1461044c578063d1a88ae514610489578063e0391b09146104b4578063e985e9c5146104df578063ef2d17461461051c57610135565b80638e2645901461035a57806395d89b41146103975780639b1225c4146103c2578063a22cb465146103de578063b88d4fde1461040757610135565b806342842e0e116100fd57806342842e0e14610231578063629cb2e41461025a5780636352211e1461028557806368f1945f146102c257806370a08231146102ed57806372b3b6201461032a57610135565b806301ffc9a71461013a57806306fdde0314610177578063081812fc146101a2578063095ea7b3146101df57806323b872dd14610208575b600080fd5b34801561014657600080fd5b50610161600480360381019061015c9190612812565b610547565b60405161016e919061285a565b60405180910390f35b34801561018357600080fd5b5061018c610629565b604051610199919061290e565b60405180910390f35b3480156101ae57600080fd5b506101c960048036038101906101c49190612966565b6106bb565b6040516101d691906129d4565b60405180910390f35b3480156101eb57600080fd5b5061020660048036038101906102019190612a1b565b610701565b005b34801561021457600080fd5b5061022f600480360381019061022a9190612a5b565b610819565b005b34801561023d57600080fd5b5061025860048036038101906102539190612a5b565b610879565b005b34801561026657600080fd5b5061026f610899565b60405161027c9190612c04565b60405180910390f35b34801561029157600080fd5b506102ac60048036038101906102a79190612966565b610c7a565b6040516102b991906129d4565b60405180910390f35b3480156102ce57600080fd5b506102d7610d2c565b6040516102e49190612c35565b60405180910390f35b3480156102f957600080fd5b50610314600480360381019061030f9190612c50565b610d36565b6040516103219190612c35565b60405180910390f35b610344600480360381019061033f9190612db2565b610dee565b6040516103519190612c35565b60405180910390f35b34801561036657600080fd5b50610381600480360381019061037c9190612966565b610e30565b60405161038e9190612e76565b60405180910390f35b3480156103a357600080fd5b506103ac610f38565b6040516103b9919061290e565b60405180910390f35b6103dc60048036038101906103d79190612966565b610fca565b005b3480156103ea57600080fd5b5061040560048036038101906104009190612ebd565b6111bc565b005b34801561041357600080fd5b5061042e60048036038101906104299190612f9e565b6111d2565b005b61044a60048036038101906104459190612966565b611234565b005b34801561045857600080fd5b50610473600480360381019061046e9190612966565b6112ce565b604051610480919061290e565b60405180910390f35b34801561049557600080fd5b5061049e6113e1565b6040516104ab9190612e76565b60405180910390f35b3480156104c057600080fd5b506104c96114f6565b6040516104d69190612c04565b60405180910390f35b3480156104eb57600080fd5b5061050660048036038101906105019190613021565b6116c8565b604051610513919061285a565b60405180910390f35b34801561052857600080fd5b5061053161175c565b60405161053e9190612c35565b60405180910390f35b60007f80ac58cd000000000000000000000000000000000000000000000000000000007bffffffffffffffffffffffffffffffffffffffffffffffffffffffff1916827bffffffffffffffffffffffffffffffffffffffffffffffffffffffff1916148061061257507f5b5e139f000000000000000000000000000000000000000000000000000000007bffffffffffffffffffffffffffffffffffffffffffffffffffffffff1916827bffffffffffffffffffffffffffffffffffffffffffffffffffffffff1916145b8061062257506106218261176d565b5b9050919050565b60606000805461063890613090565b80601f016020809104026020016040519081016040528092919081815260200182805461066490613090565b80156106b15780601f10610686576101008083540402835291602001916106b1565b820191906000526020600020905b81548152906001019060200180831161069457829003601f168201915b5050505050905090565b60006106c6826117d7565b6004600083815260200190815260200160002060009054906101000a900473ffffffffffffffffffffffffffffffffffffffff169050919050565b600061070c82610c7a565b90508073ffffffffffffffffffffffffffffffffffffffff168373ffffffffffffffffffffffffffffffffffffffff16141561077d576040517f08c379a000000000000000000000000000000000000000000000000000000000815260040161077490613134565b60405180910390fd5b8073ffffffffffffffffffffffffffffffffffffffff1661079c611822565b73ffffffffffffffffffffffffffffffffffffffff1614806107cb57506107ca816107c5611822565b6116c8565b5b61080a576040517f08c379a0000000000000000000000000000000000000000000000000000000008152600401610801906131c6565b60405180910390fd5b610814838361182a565b505050565b61082a610824611822565b826118e3565b610869576040517f08c379a000000000000000000000000000000000000000000000000000000000815260040161086090613258565b60405180910390fd5b610874838383611978565b505050565b610894838383604051806020016040528060008152506111d2565b505050565b606060006108a76007611bdf565b9050600080600080600090505b848110156109cd573373ffffffffffffffffffffffffffffffffffffffff16600b60006001846108e491906132a7565b815260200190815260200160002060010160009054906101000a900473ffffffffffffffffffffffffffffffffffffffff1673ffffffffffffffffffffffffffffffffffffffff1614806109a557503373ffffffffffffffffffffffffffffffffffffffff16600b600060018461095b91906132a7565b815260200190815260200160002060020160009054906101000a900473ffffffffffffffffffffffffffffffffffffffff1673ffffffffffffffffffffffffffffffffffffffff16145b156109ba576001846109b791906132a7565b93505b80806109c5906132fd565b9150506108b4565b5060008367ffffffffffffffff8111156109ea576109e9612c87565b5b604051908082528060200260200182016040528015610a2357816020015b610a106126a6565b815260200190600190039081610a085790505b50905060005b85811015610c6e573373ffffffffffffffffffffffffffffffffffffffff16600b6000600184610a5991906132a7565b815260200190815260200160002060010160009054906101000a900473ffffffffffffffffffffffffffffffffffffffff1673ffffffffffffffffffffffffffffffffffffffff161480610b1a57503373ffffffffffffffffffffffffffffffffffffffff16600b6000600184610ad091906132a7565b815260200190815260200160002060020160009054906101000a900473ffffffffffffffffffffffffffffffffffffffff1673ffffffffffffffffffffffffffffffffffffffff16145b15610c5b57600181610b2c91906132a7565b92506000600b60008581526020019081526020016000209050806040518060a0016040529081600082015481526020016001820160009054906101000a900473ffffffffffffffffffffffffffffffffffffffff1673ffffffffffffffffffffffffffffffffffffffff1673ffffffffffffffffffffffffffffffffffffffff1681526020016002820160009054906101000a900473ffffffffffffffffffffffffffffffffffffffff1673ffffffffffffffffffffffffffffffffffffffff1673ffffffffffffffffffffffffffffffffffffffff168152602001600382015481526020016004820160009054906101000a900460ff161515151581525050838681518110610c3f57610c3e613346565b5b6020026020010181905250600185610c5791906132a7565b9450505b8080610c66906132fd565b915050610a29565b50809550505050505090565b6000806002600084815260200190815260200160002060009054906101000a900473ffffffffffffffffffffffffffffffffffffffff169050600073ffffffffffffffffffffffffffffffffffffffff168173ffffffffffffffffffffffffffffffffffffffff161415610d23576040517f08c379a0000000000000000000000000000000000000000000000000000000008152600401610d1a906133c1565b60405180910390fd5b80915050919050565b6000600a54905090565b60008073ffffffffffffffffffffffffffffffffffffffff168273ffffffffffffffffffffffffffffffffffffffff161415610da7576040517f08c379a0000000000000000000000000000000000000000000000000000000008152600401610d9e90613453565b60405180910390fd5b600360008373ffffffffffffffffffffffffffffffffffffffff1673ffffffffffffffffffffffffffffffffffffffff168152602001908152602001600020549050919050565b6000610dfa6007611bed565b6000610e066007611bdf565b9050610e123382611c03565b610e1c8185611c21565b610e268184611c95565b8091505092915050565b610e386126a6565b600b60008381526020019081526020016000206040518060a0016040529081600082015481526020016001820160009054906101000a900473ffffffffffffffffffffffffffffffffffffffff1673ffffffffffffffffffffffffffffffffffffffff1673ffffffffffffffffffffffffffffffffffffffff1681526020016002820160009054906101000a900473ffffffffffffffffffffffffffffffffffffffff1673ffffffffffffffffffffffffffffffffffffffff1673ffffffffffffffffffffffffffffffffffffffff168152602001600382015481526020016004820160009054906101000a900460ff1615151515815250509050919050565b606060018054610f4790613090565b80601f0160208091040260200160405190810160405280929190818152602001828054610f7390613090565b8015610fc05780601f10610f9557610100808354040283529160200191610fc0565b820191906000526020600020905b815481529060010190602001808311610fa357829003601f168201915b5050505050905090565b6000600b60008381526020019081526020016000206003015490506000600b600084815260200190815260200160002060020160009054906101000a900473ffffffffffffffffffffffffffffffffffffffff169050813414611062576040517f08c379a0000000000000000000000000000000000000000000000000000000008152600401611059906134e5565b60405180910390fd5b6001600b600085815260200190815260200160002060040160006101000a81548160ff02191690831515021790555033600b600085815260200190815260200160002060020160006101000a81548173ffffffffffffffffffffffffffffffffffffffff021916908373ffffffffffffffffffffffffffffffffffffffff1602179055506110f06008611bed565b6110fb303385611978565b6111053084610701565b600960009054906101000a900473ffffffffffffffffffffffffffffffffffffffff1673ffffffffffffffffffffffffffffffffffffffff166108fc600a549081150290604051600060405180830381858888f1935050505015801561116f573d6000803e3d6000fd5b508073ffffffffffffffffffffffffffffffffffffffff166108fc349081150290604051600060405180830381858888f193505050501580156111b6573d6000803e3d6000fd5b50505050565b6111ce6111c7611822565b8383611e98565b5050565b6111e36111dd611822565b836118e3565b611222576040517f08c379a000000000000000000000000000000000000000000000000000000000815260040161121990613258565b60405180910390fd5b61122e84848484612005565b50505050565b3373ffffffffffffffffffffffffffffffffffffffff16600960009054906101000a900473ffffffffffffffffffffffffffffffffffffffff1673ffffffffffffffffffffffffffffffffffffffff16146112c4576040517f08c379a00000000000000000000000000000000000000000000000000000000081526004016112bb90613577565b60405180910390fd5b80600a8190555050565b60606112d9826117d7565b60006006600084815260200190815260200160002080546112f990613090565b80601f016020809104026020016040519081016040528092919081815260200182805461132590613090565b80156113725780601f1061134757610100808354040283529160200191611372565b820191906000526020600020905b81548152906001019060200180831161135557829003601f168201915b505050505090506000611383612061565b90506000815114156113995781925050506113dc565b6000825111156113ce5780826040516020016113b69291906135d3565b604051602081830303815290604052925050506113dc565b6113d784612078565b925050505b919050565b6113e96126a6565b60006113f56007611bdf565b9050600b60008281526020019081526020016000206040518060a0016040529081600082015481526020016001820160009054906101000a900473ffffffffffffffffffffffffffffffffffffffff1673ffffffffffffffffffffffffffffffffffffffff1673ffffffffffffffffffffffffffffffffffffffff1681526020016002820160009054906101000a900473ffffffffffffffffffffffffffffffffffffffff1673ffffffffffffffffffffffffffffffffffffffff1673ffffffffffffffffffffffffffffffffffffffff168152602001600382015481526020016004820160009054906101000a900460ff16151515158152505091505090565b606060006115046007611bdf565b905060008167ffffffffffffffff81111561152257611521612c87565b5b60405190808252806020026020018201604052801561155b57816020015b6115486126a6565b8152602001906001900390816115405790505b50905060008080600090505b848110156116bd5760018161157c91906132a7565b91506000600b60008481526020019081526020016000209050806040518060a0016040529081600082015481526020016001820160009054906101000a900473ffffffffffffffffffffffffffffffffffffffff1673ffffffffffffffffffffffffffffffffffffffff1673ffffffffffffffffffffffffffffffffffffffff1681526020016002820160009054906101000a900473ffffffffffffffffffffffffffffffffffffffff1673ffffffffffffffffffffffffffffffffffffffff1673ffffffffffffffffffffffffffffffffffffffff168152602001600382015481526020016004820160009054906101000a900460ff16151515158152505085858151811061168f5761168e613346565b5b60200260200101819052506001846116a791906132a7565b93505080806116b5906132fd565b915050611567565b508294505050505090565b6000600560008473ffffffffffffffffffffffffffffffffffffffff1673ffffffffffffffffffffffffffffffffffffffff16815260200190815260200160002060008373ffffffffffffffffffffffffffffffffffffffff1673ffffffffffffffffffffffffffffffffffffffff16815260200190815260200160002060009054906101000a900460ff16905092915050565b60006117686007611bdf565b905090565b60007f01ffc9a7000000000000000000000000000000000000000000000000000000007bffffffffffffffffffffffffffffffffffffffffffffffffffffffff1916827bffffffffffffffffffffffffffffffffffffffffffffffffffffffff1916149050919050565b6117e0816120e0565b61181f576040517f08c379a0000000000000000000000000000000000000000000000000000000008152600401611816906133c1565b60405180910390fd5b50565b600033905090565b816004600083815260200190815260200160002060006101000a81548173ffffffffffffffffffffffffffffffffffffffff021916908373ffffffffffffffffffffffffffffffffffffffff160217905550808273ffffffffffffffffffffffffffffffffffffffff1661189d83610c7a565b73ffffffffffffffffffffffffffffffffffffffff167f8c5be1e5ebec7d5bd14f71427d1e84f3dd0314c0f7b2291e5b200ac8c7c3b92560405160405180910390a45050565b6000806118ef83610c7a565b90508073ffffffffffffffffffffffffffffffffffffffff168473ffffffffffffffffffffffffffffffffffffffff161480611931575061193081856116c8565b5b8061196f57508373ffffffffffffffffffffffffffffffffffffffff16611957846106bb565b73ffffffffffffffffffffffffffffffffffffffff16145b91505092915050565b8273ffffffffffffffffffffffffffffffffffffffff1661199882610c7a565b73ffffffffffffffffffffffffffffffffffffffff16146119ee576040517f08c379a00000000000000000000000000000000000000000000000000000000081526004016119e590613669565b60405180910390fd5b600073ffffffffffffffffffffffffffffffffffffffff168273ffffffffffffffffffffffffffffffffffffffff161415611a5e576040517f08c379a0000000000000000000000000000000000000000000000000000000008152600401611a55906136fb565b60405180910390fd5b611a6983838361214c565b611a7460008261182a565b6001600360008573ffffffffffffffffffffffffffffffffffffffff1673ffffffffffffffffffffffffffffffffffffffff1681526020019081526020016000206000828254611ac4919061371b565b925050819055506001600360008473ffffffffffffffffffffffffffffffffffffffff1673ffffffffffffffffffffffffffffffffffffffff1681526020019081526020016000206000828254611b1b91906132a7565b92505081905550816002600083815260200190815260200160002060006101000a81548173ffffffffffffffffffffffffffffffffffffffff021916908373ffffffffffffffffffffffffffffffffffffffff160217905550808273ffffffffffffffffffffffffffffffffffffffff168473ffffffffffffffffffffffffffffffffffffffff167fddf252ad1be2c89b69c2b068fc378daa952ba7f163c4a11628f55a4df523b3ef60405160405180910390a4611bda838383612151565b505050565b600081600001549050919050565b6001816000016000828254019250508190555050565b611c1d828260405180602001604052806000815250612156565b5050565b611c2a826120e0565b611c69576040517f08c379a0000000000000000000000000000000000000000000000000000000008152600401611c60906137c1565b60405180910390fd5b80600660008481526020019081526020016000209080519060200190611c90929190612703565b505050565b600a543414611cd9576040517f08c379a0000000000000000000000000000000000000000000000000000000008152600401611cd090613853565b60405180910390fd5b60008111611d1c576040517f08c379a0000000000000000000000000000000000000000000000000000000008152600401611d13906138e5565b60405180910390fd5b6040518060a001604052808381526020013073ffffffffffffffffffffffffffffffffffffffff1681526020013373ffffffffffffffffffffffffffffffffffffffff16815260200182815260200160011515815250600b60008481526020019081526020016000206000820151816000015560208201518160010160006101000a81548173ffffffffffffffffffffffffffffffffffffffff021916908373ffffffffffffffffffffffffffffffffffffffff16021790555060408201518160020160006101000a81548173ffffffffffffffffffffffffffffffffffffffff021916908373ffffffffffffffffffffffffffffffffffffffff1602179055506060820151816003015560808201518160040160006101000a81548160ff021916908315150217905550905050611e55333084611978565b817f9339409317fd01fabff48b703019016f49159bacc801ae872d2ca637d226e4c03033846001604051611e8c9493929190613905565b60405180910390a25050565b8173ffffffffffffffffffffffffffffffffffffffff168373ffffffffffffffffffffffffffffffffffffffff161415611f07576040517f08c379a0000000000000000000000000000000000000000000000000000000008152600401611efe90613996565b60405180910390fd5b80600560008573ffffffffffffffffffffffffffffffffffffffff1673ffffffffffffffffffffffffffffffffffffffff16815260200190815260200160002060008473ffffffffffffffffffffffffffffffffffffffff1673ffffffffffffffffffffffffffffffffffffffff16815260200190815260200160002060006101000a81548160ff0219169083151502179055508173ffffffffffffffffffffffffffffffffffffffff168373ffffffffffffffffffffffffffffffffffffffff167f17307eab39ab6107e8899845ad3d59bd9653f200f220920489ca2b5937696c3183604051611ff8919061285a565b60405180910390a3505050565b612010848484611978565b61201c848484846121b1565b61205b576040517f08c379a000000000000000000000000000000000000000000000000000000000815260040161205290613a28565b60405180910390fd5b50505050565b606060405180602001604052806000815250905090565b6060612083826117d7565b600061208d612061565b905060008151116120ad57604051806020016040528060008152506120d8565b806120b784612348565b6040516020016120c89291906135d3565b6040516020818303038152906040525b915050919050565b60008073ffffffffffffffffffffffffffffffffffffffff166002600084815260200190815260200160002060009054906101000a900473ffffffffffffffffffffffffffffffffffffffff1673ffffffffffffffffffffffffffffffffffffffff1614159050919050565b505050565b505050565b61216083836124a9565b61216d60008484846121b1565b6121ac576040517f08c379a00000000000000000000000000000000000000000000000000000000081526004016121a390613a28565b60405180910390fd5b505050565b60006121d28473ffffffffffffffffffffffffffffffffffffffff16612683565b1561233b578373ffffffffffffffffffffffffffffffffffffffff1663150b7a026121fb611822565b8786866040518563ffffffff1660e01b815260040161221d9493929190613a9d565b602060405180830381600087803b15801561223757600080fd5b505af192505050801561226857506040513d601f19601f820116820180604052508101906122659190613afe565b60015b6122eb573d8060008114612298576040519150601f19603f3d011682016040523d82523d6000602084013e61229d565b606091505b506000815114156122e3576040517f08c379a00000000000000000000000000000000000000000000000000000000081526004016122da90613a28565b60405180910390fd5b805181602001fd5b63150b7a0260e01b7bffffffffffffffffffffffffffffffffffffffffffffffffffffffff1916817bffffffffffffffffffffffffffffffffffffffffffffffffffffffff191614915050612340565b600190505b949350505050565b60606000821415612390576040518060400160405280600181526020017f300000000000000000000000000000000000000000000000000000000000000081525090506124a4565b600082905060005b600082146123c25780806123ab906132fd565b915050600a826123bb9190613b5a565b9150612398565b60008167ffffffffffffffff8111156123de576123dd612c87565b5b6040519080825280601f01601f1916602001820160405280156124105781602001600182028036833780820191505090505b5090505b6000851461249d57600182612429919061371b565b9150600a856124389190613b8b565b603061244491906132a7565b60f81b81838151811061245a57612459613346565b5b60200101907effffffffffffffffffffffffffffffffffffffffffffffffffffffffffffff1916908160001a905350600a856124969190613b5a565b9450612414565b8093505050505b919050565b600073ffffffffffffffffffffffffffffffffffffffff168273ffffffffffffffffffffffffffffffffffffffff161415612519576040517f08c379a000000000000000000000000000000000000000000000000000000000815260040161251090613c08565b60405180910390fd5b612522816120e0565b15612562576040517f08c379a000000000000000000000000000000000000000000000000000000000815260040161255990613c74565b60405180910390fd5b61256e6000838361214c565b6001600360008473ffffffffffffffffffffffffffffffffffffffff1673ffffffffffffffffffffffffffffffffffffffff16815260200190815260200160002060008282546125be91906132a7565b92505081905550816002600083815260200190815260200160002060006101000a81548173ffffffffffffffffffffffffffffffffffffffff021916908373ffffffffffffffffffffffffffffffffffffffff160217905550808273ffffffffffffffffffffffffffffffffffffffff16600073ffffffffffffffffffffffffffffffffffffffff167fddf252ad1be2c89b69c2b068fc378daa952ba7f163c4a11628f55a4df523b3ef60405160405180910390a461267f60008383612151565b5050565b6000808273ffffffffffffffffffffffffffffffffffffffff163b119050919050565b6040518060a0016040528060008152602001600073ffffffffffffffffffffffffffffffffffffffff168152602001600073ffffffffffffffffffffffffffffffffffffffff168152602001600081526020016000151581525090565b82805461270f90613090565b90600052602060002090601f0160209004810192826127315760008555612778565b82601f1061274a57805160ff1916838001178555612778565b82800160010185558215612778579182015b8281111561277757825182559160200191906001019061275c565b5b5090506127859190612789565b5090565b5b808211156127a257600081600090555060010161278a565b5090565b6000604051905090565b600080fd5b600080fd5b60007fffffffff0000000000000000000000000000000000000000000000000000000082169050919050565b6127ef816127ba565b81146127fa57600080fd5b50565b60008135905061280c816127e6565b92915050565b600060208284031215612828576128276127b0565b5b6000612836848285016127fd565b91505092915050565b60008115159050919050565b6128548161283f565b82525050565b600060208201905061286f600083018461284b565b92915050565b600081519050919050565b600082825260208201905092915050565b60005b838110156128af578082015181840152602081019050612894565b838111156128be576000848401525b50505050565b6000601f19601f8301169050919050565b60006128e082612875565b6128ea8185612880565b93506128fa818560208601612891565b612903816128c4565b840191505092915050565b6000602082019050818103600083015261292881846128d5565b905092915050565b6000819050919050565b61294381612930565b811461294e57600080fd5b50565b6000813590506129608161293a565b92915050565b60006020828403121561297c5761297b6127b0565b5b600061298a84828501612951565b91505092915050565b600073ffffffffffffffffffffffffffffffffffffffff82169050919050565b60006129be82612993565b9050919050565b6129ce816129b3565b82525050565b60006020820190506129e960008301846129c5565b92915050565b6129f8816129b3565b8114612a0357600080fd5b50565b600081359050612a15816129ef565b92915050565b60008060408385031215612a3257612a316127b0565b5b6000612a4085828601612a06565b9250506020612a5185828601612951565b9150509250929050565b600080600060608486031215612a7457612a736127b0565b5b6000612a8286828701612a06565b9350506020612a9386828701612a06565b9250506040612aa486828701612951565b9150509250925092565b600081519050919050565b600082825260208201905092915050565b6000819050602082019050919050565b612ae381612930565b82525050565b6000612af482612993565b9050919050565b612b0481612ae9565b82525050565b612b138161283f565b82525050565b60a082016000820151612b2f6000850182612ada565b506020820151612b426020850182612afb565b506040820151612b556040850182612afb565b506060820151612b686060850182612ada565b506080820151612b7b6080850182612b0a565b50505050565b6000612b8d8383612b19565b60a08301905092915050565b6000602082019050919050565b6000612bb182612aae565b612bbb8185612ab9565b9350612bc683612aca565b8060005b83811015612bf7578151612bde8882612b81565b9750612be983612b99565b925050600181019050612bca565b5085935050505092915050565b60006020820190508181036000830152612c1e8184612ba6565b905092915050565b612c2f81612930565b82525050565b6000602082019050612c4a6000830184612c26565b92915050565b600060208284031215612c6657612c656127b0565b5b6000612c7484828501612a06565b91505092915050565b600080fd5b600080fd5b7f4e487b7100000000000000000000000000000000000000000000000000000000600052604160045260246000fd5b612cbf826128c4565b810181811067ffffffffffffffff82111715612cde57612cdd612c87565b5b80604052505050565b6000612cf16127a6565b9050612cfd8282612cb6565b919050565b600067ffffffffffffffff821115612d1d57612d1c612c87565b5b612d26826128c4565b9050602081019050919050565b82818337600083830152505050565b6000612d55612d5084612d02565b612ce7565b905082815260208101848484011115612d7157612d70612c82565b5b612d7c848285612d33565b509392505050565b600082601f830112612d9957612d98612c7d565b5b8135612da9848260208601612d42565b91505092915050565b60008060408385031215612dc957612dc86127b0565b5b600083013567ffffffffffffffff811115612de757612de66127b5565b5b612df385828601612d84565b9250506020612e0485828601612951565b9150509250929050565b60a082016000820151612e246000850182612ada565b506020820151612e376020850182612afb565b506040820151612e4a6040850182612afb565b506060820151612e5d6060850182612ada565b506080820151612e706080850182612b0a565b50505050565b600060a082019050612e8b6000830184612e0e565b92915050565b612e9a8161283f565b8114612ea557600080fd5b50565b600081359050612eb781612e91565b92915050565b60008060408385031215612ed457612ed36127b0565b5b6000612ee285828601612a06565b9250506020612ef385828601612ea8565b9150509250929050565b600067ffffffffffffffff821115612f1857612f17612c87565b5b612f21826128c4565b9050602081019050919050565b6000612f41612f3c84612efd565b612ce7565b905082815260208101848484011115612f5d57612f5c612c82565b5b612f68848285612d33565b509392505050565b600082601f830112612f8557612f84612c7d565b5b8135612f95848260208601612f2e565b91505092915050565b60008060008060808587031215612fb857612fb76127b0565b5b6000612fc687828801612a06565b9450506020612fd787828801612a06565b9350506040612fe887828801612951565b925050606085013567ffffffffffffffff811115613009576130086127b5565b5b61301587828801612f70565b91505092959194509250565b60008060408385031215613038576130376127b0565b5b600061304685828601612a06565b925050602061305785828601612a06565b9150509250929050565b7f4e487b7100000000000000000000000000000000000000000000000000000000600052602260045260246000fd5b600060028204905060018216806130a857607f821691505b602082108114156130bc576130bb613061565b5b50919050565b7f4552433732313a20617070726f76616c20746f2063757272656e74206f776e6560008201527f7200000000000000000000000000000000000000000000000000000000000000602082015250565b600061311e602183612880565b9150613129826130c2565b604082019050919050565b6000602082019050818103600083015261314d81613111565b9050919050565b7f4552433732313a20617070726f76652063616c6c6572206973206e6f7420746f60008201527f6b656e206f776e6572206e6f7220617070726f76656420666f7220616c6c0000602082015250565b60006131b0603e83612880565b91506131bb82613154565b604082019050919050565b600060208201905081810360008301526131df816131a3565b9050919050565b7f4552433732313a2063616c6c6572206973206e6f7420746f6b656e206f776e6560008201527f72206e6f7220617070726f766564000000000000000000000000000000000000602082015250565b6000613242602e83612880565b915061324d826131e6565b604082019050919050565b6000602082019050818103600083015261327181613235565b9050919050565b7f4e487b7100000000000000000000000000000000000000000000000000000000600052601160045260246000fd5b60006132b282612930565b91506132bd83612930565b9250827fffffffffffffffffffffffffffffffffffffffffffffffffffffffffffffffff038211156132f2576132f1613278565b5b828201905092915050565b600061330882612930565b91507fffffffffffffffffffffffffffffffffffffffffffffffffffffffffffffffff82141561333b5761333a613278565b5b600182019050919050565b7f4e487b7100000000000000000000000000000000000000000000000000000000600052603260045260246000fd5b7f4552433732313a20696e76616c696420746f6b656e2049440000000000000000600082015250565b60006133ab601883612880565b91506133b682613375565b602082019050919050565b600060208201905081810360008301526133da8161339e565b9050919050565b7f4552433732313a2061646472657373207a65726f206973206e6f74206120766160008201527f6c6964206f776e65720000000000000000000000000000000000000000000000602082015250565b600061343d602983612880565b9150613448826133e1565b604082019050919050565b6000602082019050818103600083015261346c81613430565b9050919050565b7f506c65617365207375626d6974207468652061736b696e67207072696365206960008201527f6e206f7264657220746f20636f6d706c65746520746865207075726368617365602082015250565b60006134cf604083612880565b91506134da82613473565b604082019050919050565b600060208201905081810360008301526134fe816134c2565b9050919050565b7f4f6e6c79206f776e65722063616e20757064617465206c697374696e6720707260008201527f6963650000000000000000000000000000000000000000000000000000000000602082015250565b6000613561602383612880565b915061356c82613505565b604082019050919050565b6000602082019050818103600083015261359081613554565b9050919050565b600081905092915050565b60006135ad82612875565b6135b78185613597565b93506135c7818560208601612891565b80840191505092915050565b60006135df82856135a2565b91506135eb82846135a2565b91508190509392505050565b7f4552433732313a207472616e736665722066726f6d20696e636f72726563742060008201527f6f776e6572000000000000000000000000000000000000000000000000000000602082015250565b6000613653602583612880565b915061365e826135f7565b604082019050919050565b6000602082019050818103600083015261368281613646565b9050919050565b7f4552433732313a207472616e7366657220746f20746865207a65726f2061646460008201527f7265737300000000000000000000000000000000000000000000000000000000602082015250565b60006136e5602483612880565b91506136f082613689565b604082019050919050565b60006020820190508181036000830152613714816136d8565b9050919050565b600061372682612930565b915061373183612930565b92508282101561374457613743613278565b5b828203905092915050565b7f45524337323155524953746f726167653a2055524920736574206f66206e6f6e60008201527f6578697374656e7420746f6b656e000000000000000000000000000000000000602082015250565b60006137ab602e83612880565b91506137b68261374f565b604082019050919050565b600060208201905081810360008301526137da8161379e565b9050919050565b7f486f706566756c6c792073656e64696e672074686520636f727265637420707260008201527f6963650000000000000000000000000000000000000000000000000000000000602082015250565b600061383d602383612880565b9150613848826137e1565b604082019050919050565b6000602082019050818103600083015261386c81613830565b9050919050565b7f4d616b652073757265207468652070726963652069736e2774206e656761746960008201527f7665000000000000000000000000000000000000000000000000000000000000602082015250565b60006138cf602283612880565b91506138da82613873565b604082019050919050565b600060208201905081810360008301526138fe816138c2565b9050919050565b600060808201905061391a60008301876129c5565b61392760208301866129c5565b6139346040830185612c26565b613941606083018461284b565b95945050505050565b7f4552433732313a20617070726f766520746f2063616c6c657200000000000000600082015250565b6000613980601983612880565b915061398b8261394a565b602082019050919050565b600060208201905081810360008301526139af81613973565b9050919050565b7f4552433732313a207472616e7366657220746f206e6f6e20455243373231526560008201527f63656976657220696d706c656d656e7465720000000000000000000000000000602082015250565b6000613a12603283612880565b9150613a1d826139b6565b604082019050919050565b60006020820190508181036000830152613a4181613a05565b9050919050565b600081519050919050565b600082825260208201905092915050565b6000613a6f82613a48565b613a798185613a53565b9350613a89818560208601612891565b613a92816128c4565b840191505092915050565b6000608082019050613ab260008301876129c5565b613abf60208301866129c5565b613acc6040830185612c26565b8181036060830152613ade8184613a64565b905095945050505050565b600081519050613af8816127e6565b92915050565b600060208284031215613b1457613b136127b0565b5b6000613b2284828501613ae9565b91505092915050565b7f4e487b7100000000000000000000000000000000000000000000000000000000600052601260045260246000fd5b6000613b6582612930565b9150613b7083612930565b925082613b8057613b7f613b2b565b5b828204905092915050565b6000613b9682612930565b9150613ba183612930565b925082613bb157613bb0613b2b565b5b828206905092915050565b7f4552433732313a206d696e7420746f20746865207a65726f2061646472657373600082015250565b6000613bf2602083612880565b9150613bfd82613bbc565b602082019050919050565b60006020820190508181036000830152613c2181613be5565b9050919050565b7f4552433732313a20746f6b656e20616c7265616479206d696e74656400000000600082015250565b6000613c5e601c83612880565b9150613c6982613c28565b602082019050919050565b60006020820190508181036000830152613c8d81613c51565b905091905056fea26469706673582212208e1c8b495d8d2b26adad7ec861c08eadae8bfbcac9429cdcc02e89270b7b7b4864736f6c63430008090033",
  "linkReferences": {},
  "deployedLinkReferences": {}
}